:08000000803102288731FC2F3A
:100CAC00863171268631592E8031022821000D148F
:100CBC0023000D1021008D1423008D1021000D1523
:100CCC0023000D1121008D1523008D1121008E01A3
:100CDC0022008E01080086315C26863120000D1C16
:100CEC00782E792EA92E8D187C2E7D2EA92E0D19DD
:100CFC00802E812EA92E8D19842E852EA92E07309B
:100D0C00F2000130F000720A8C2EF035890B8B2E1C
:100D1C007008F100710822008E040630F1001330C7
:100D2C00F000AE30890B982EF00B982EF10B982E0C
:100D3C00FF30F0007008F207F21FA52EA62E872EAA
:100D4C0022008E01742E0D18AC2EAD2EDC2E8D1CB7
:100D5C00B02EB12EDC2E0D19B42EB52EDC2E8D1925
:100D6C00B82EB92EDC2EF3010130F000730ABF2E21
:100D7C00F035890BBE2E7008F100710822008E042C
:100D8C000630F1001330F000AE30890BCB2EF00B97
:100D9C00CB2EF10BCB2E0130F0007008F30708308E
:100DAC007302031CDA2EDB2EBA2EA62E0D18DF2EA4
:100DBC00E02E0E2F8D18E32EE42E0E2F0D1DE72E98
:100DCC00E82E0E2F8D19EB2EEC2E0E2F0630F40084
:100DDC000130F000740AF32EF035890BF22E7008F6
:100DEC00F100710822008E040630F1001330F0007F
:100DFC00AE30890BFF2EF00BFF2EF10BFF2E74087B
:100E0C00FE3EF4007408031D0C2F0D2FEE2EA62EA3
:100E1C000D18112F122F412F8D18152F162F412F12
:100E2C000D19192F1A2F412F8D1D1D2F1E2F412FDC
:100E3C000230F5000130F000750A252FF035890BD2
:100E4C00242F7008F100710822008E040630F10086
:100E5C001330F000AE30890B312FF00B312FF10B2A
:100E6C00312F7508023EF50008307502031C3F2F28
:100E7C00402F202FA62E0D1C442F452F6D2F8D1C7F
:100E8C00482F492F6D2F0730F6000130F000760AFD
:100E9C00502FF035890B4F2F7008F100710822008C
:100EAC008E040630F1001330F000AE30890B5C2F4D
:100EBC00F00B5C2FF10B5C2F7608FE3EF6007608EB
:100ECC00803A7F3E03186B2F6C2F4B2FA62E0D1CD8
:100EDC00702F712F982F0D1D742F752F982FF701D0
:100EEC00F70A0130F000770A7C2FF035890B7B2F45
:100EFC007008F100710822008E040630F1001330E6
:100F0C00F000AE30890B882FF00B882FF10B882F57
:100F1C007708023EF70008307702031C962F972FB4
:100F2C00772FA62E8D1C9B2F9C2FC22F0D1D9F2F14
:100F3C00A02FC22F0730F8000130F000780AA72F3D
:100F4C00F035890BA62F7008F100710822008E0471
:100F5C000630F1001330F000AE30890BB32FF00BDC
:100F6C00B32FF10BB32F7808FE3EF8007808031D61
:100F7C00C02FC12FA22FA62E8D1CC52FC62FF12F2F
:100F8C000D1DC92FCA2FF12F0D1CCD2FCE2FF12FD8
:100F9C000730F9000130F000790AD52FF035890BB4
:100FAC00D42F7008F100710822008E040630F10075
:100FBC001330F000AE30890BE12FF00BE12FF10B69
:100FCC00E12F7908FE3EF900043079020318EF2F67
:100FDC00F02FD02FA62E0D1CF42FF52FFA2F8D1DD0
:100FEC00F82FF92FFA2FA62E742E0800FA012000E4
:040FFC008631562EB6
:020000040001F9
:04000E00E239FF1EB6
:00000001FF
