:08000000803102288731FD2F39
:100F220038302100990098012200960121008F019A
:100F3200013022008F00F2010130F000720AA22F6C
:100F4200F035890BA12F7008FF3AF10071082200D9
:100F52008F050130F0007208013E890AB12FF03589
:100F6200890BB02F7008F10071088F040630F10070
:100F72001330F000AE30890BBC2FF00BBC2FF10BFD
:100F8200BC2F0130F0007008F20708307202031C17
:100F9200CB2FCC2F9D2F0730F3000130F000730AC6
:100FA200D32FF035890BD22F7008FF3AF100710868
:100FB20022008F050130F0007308FF3E890AE22FFC
:100FC200F035890BE12F7008F10071088F040630AB
:100FD200F1001330F000AE30890BED2FF00BED2F46
:100FE200F10BED2F0130F3027308031DF92FFA2FD5
:0E0FF200CE2F9C2F8031022820008731912FB6
:020000040001F9
:04000E00E239FF1EB6
:00000001FF
