:08000000803102288731FD2F39
:100F7C0023000F128F1221000F128F120E148E14D9
:100F8C0008008731BE27873120000E18CE2FCF2FB7
:100F9C00D62F8E18D22FD32FD62F22000F128F12AE
:100FAC0020000E18DA2FDB2FE22F8E1CDE2FDF2F06
:100FBC00E22F22000F128F1620000E1CE62FE72FB7
:100FCC00EE2F8E18EA2FEB2FEE2F22008F120F161A
:100FDC0020000E1CF22FF32FCA2F8E1CF62FF72F8A
:100FEC00CA2F22008F120F12CA2F80310228200024
:040FFC008731C72F43
:020000040001F9
:04000E00E239FF1EB6
:00000001FF
