:08000000803102288731FD2F39
:100F860021000F148F140E1023000F108F10220053
:100F96000E1008008731C327873120000F18D42F81
:100FA600D52FE52F0F1CD82FD92FD52F03102200B0
:100FB6000E1C03140318E02FE32F22000E14E52F56
:100FC60022000E1020008F18E92FEA2FD02F8F1C39
:100FD600ED2FEE2FEA2F031022000E1C0314031828
:100FE600F52FF82F22000E14FA2F22000E10D02F04
:0A0FF6008031022820008731CD2F42
:020000040001F9
:04000E00E23FFF3E90
:00000001FF
