:08000000803102288731FD2F39
:100D380023008D0121000D108D100D118D110D1244
:100D48008D120D138D1322000D108D100D118D11A4
:100D58000D128D120D138D13080086319C268631D5
:100D680038302100990098012200960122000D14C4
:100D78008D100D118D110D128D120D138D1306305E
:100D8800F1001330F000AE30890BC82EF00BC82EDE
:100D9800F10BC82E22000D108D140D118D110D129E
:100DA8008D120D138D130630F1001330F000AE30A4
:100DB800890BDC2EF00BDC2EF10BDC2E22000D1043
:100DC8008D100D158D110D128D120D138D1306300A
:100DD800F1001330F000AE30890BF02EF00BF02E3E
:100DE800F10BF02E22000D108D100D118D150D1226
:100DF8008D120D138D130630F1001330F000AE3054
:100E0800890B042FF00B042FF10B042F22000D1077
:100E18008D100D118D110D168D120D138D130630B9
:100E2800F1001330F000AE30890B182FF00B182F9B
:100E3800F10B182F22000D108D100D118D110D12B0
:100E48008D160D138D130630F1001330F000AE30FF
:100E5800890B2C2FF00B2C2FF10B2C2F22000D10AF
:100E68008D100D118D110D128D120D178D13063069
:100E7800F1001330F000AE30890B402FF00B402FFB
:100E8800F10B402F22000D108D100D118D110D1238
:100E98008D120D138D170630F1001330F000AE30AF
:100EA800890B542FF00B542FF10B542F22000D10E7
:100EB8008D100D118D110D128D120D138D17063019
:100EC800F1001330F000AE30890B682FF00B682F5B
:100ED800F10B682F22000D108D100D118D110D12C0
:100EE8008D120D178D130630F1001330F000AE305F
:100EF800890B7C2FF00B7C2FF10B7C2F22000D101F
:100F08008D100D118D110D128D160D138D130630C8
:100F1800F1001330F000AE30890B902FF00B902FBA
:100F2800F10B902F22000D108D100D118D110D1643
:100F38008D120D138D130630F1001330F000AE3012
:100F4800890BA42FF00BA42FF10BA42F22000D1056
:100F58008D100D118D150D128D120D138D13063078
:100F6800F1001330F000AE30890BB82FF00BB82F1A
:100F7800F10BB82F22000D108D100D158D110D12CB
:100F88008D120D138D130630F1001330F000AE30C2
:100F9800890BCC2FF00BCC2FF10BCC2F22000D108E
:100FA8008D140D118D110D128D120D138D13063028
:100FB800F1001330F000AE30890BE02FF00BE02F7A
:100FC800F10BE02F22000D148D100D118D110D1253
:100FD8008D120D138D130630F1001330F000AE3072
:100FE800890BF42FF00BF42FF10BF42FBA2E80316C
:080FF800022820008631B12E11
:020000040001F9
:04000E00E239FF1EB6
:00000001FF
