:08000000803102288731EA2F4C
:100C3000E8340334F43401346434003438302100AF
:100C4000990098012200960121008E018F01FF304A
:100C50008D0023008D018F0122008E018F0108007D
:100C600086311E26863120000D080739FA007A08E1
:100C700022008E00F801F901F90A7808031D412EBF
:100C8000422E252F7903031D462E472E892E031051
:100C900022008E0D03108F0D770C031C0F1003180C
:100CA0000F14760C031C0E1003180E140330FC00F6
:100CB0008A30FB005630890B5B2EFB0B5B2EFC0B46
:100CC0005B2E22000E08FB000730FB36890B652ED9
:100CD0007B080139F7000F08FB000730FB36890B52
:100CE0006E2E7B080139F60020000D1B782E792E20
:100CF0007F2E0D1F7C2E7D2E792EF801F80A0D1AFD
:100D0000822E832E892E0D1E862E872E832E023054
:100D1000F90002307906031D8E2E8F2EDC2E031073
:100D200022008E0D03108F0D770C031C0F1003187B
:100D30000F14760C031C0E1003180E140D30FC005B
:100D4000AF30FB00B630890BA32EFB0BA32EFC0BA0
:100D5000A32E003222000E08FB000730FB36890B61
:100D6000AE2E7B080139F7000F08FB000730FB3679
:100D7000890BB72E7B080139F60020000D1BC12E10
:100D8000C22EC82E0D1FC52EC62EC22EF801F80A7F
:100D90000D1ACB2ECC2ED22E0D1ECF2ED02ECC2E19
:100DA0000330F9008D1AD52ED62EDC2E8D1ED92EAD
:100DB000DA2ED62EF901F90A03307906031DE12E49
:100DC000E22E252F031022008E0D03108F0D770CBD
:100DD000031C0F1003180F14760C031C0E100318BD
:100DE0000E141A30FC005E30FB006E30890BF62EBC
:100DF000FB0BF62EFC0BF62E003222000E08FB0039
:100E00000730FB36890B012F7B080139F7000F08EB
:100E1000FB000730FB36890B0A2F7B080139F600EF
:100E200020000D1B142F152F1B2F0D1F182F192FEE
:100E3000152FF801F80A8D1A1E2F1F2F252F8D1E32
:100E4000222F232F1F2F0230F9007803031D292F93
:100E50002A2F3D2E7903031D2E2F2F2F642F2200C2
:100E60000E080139F7000F080139F6000330FC00C5
:100E70008A30FB005630890B3B2FFB0B3B2FFC0BC2
:100E80003B2F031022008E0C03108F0C770C031CD9
:100E90008F1303188F17760C031C8E1303188E17ED
:100EA00020000D1B542F552F5A2F0D1F582F592F2F
:100EB000552FF8010D1A5D2F5E2F642F8D1E612FA7
:100EC000622F5E2F0230F90002307906031D692F70
:100ED0006A2FAA2F22000E080139F7000F080139E6
:100EE000F6000D30FC00AF30FB00B630890B762FDA
:100EF000FB0B762FFC0B762F0032031022008E0C9A
:100F000003108F0C770C031C8F1303188F17760CAC
:100F1000031C8E1303188E1720000D1B902F912F8A
:100F2000962F0D1F942F952F912FF8010D1A992FA1
:100F30009A2FA02F0D1E9D2F9E2F9A2F0330F90060
:100F40008D1AA32FA42FAA2F8D1EA72FA82FA42F51
:100F5000F901F90A03307906031DAF2FB02F3D2E9A
:100F600022000E080139F7000F080139F6001A3087
:100F7000FC005E30FB006E30890BBC2FFB0BBC2FDE
:100F8000FC0BBC2F0032031022008E0C03108F0CC0
:100F9000770C031C8F1303188F17760C031C8E130A
:100FA00003188E1720000D1BD62FD72FDC2F0D1FF7
:100FB000DA2FDB2FD72FF8018D1ADF2FE02FE72F45
:100FC0008D1EE32FE42FE02F0230F9003D2E3D2E41
:100FD0008031022818308400863085001200F0002D
:100FE0001200F1001200F2001200F3001200F400EF
:100FF0001200F500F601F701F80120008631302ECD
:020000040001F9
:04000E00E23FFF3E90
:00000001FF
