:08000000803102288731FD2F39
:100F46008731B6278731A62F8031022821008E15DA
:100F56000E168E160E170F108F100F1122000F107F
:100F66008F100F1108008731A927873120008E19AD
:100F7600BD2FBE2FCC2F22000F18C22FC32FCC2F70
:100F86008F18C62FC72FCC2F0F19CA2FCB2FCC2FB8
:100F96000F1420000E1AD02FD12FDF2F22000F188A
:100FA600D52FD62FDF2F8F18D92FDA2FDF2F0F1936
:100FB600DD2FDE2FDF2F8F1420008E1AE32FE42F74
:100FC600F22F22000F18E82FE92FF22F8F18EC2F9F
:100FD600ED2FF22F0F19F02FF12FF22F0F15200002
:100FE6000E1BF62FF72FB92F22000F108F100F119F
:0A0FF600B92F080020008731A32F57
:020000040001F9
:04000E00E239FF1EB6
:00000001FF
