:08000000803102288731FC2F3A
:100E0E0021008E01080021000D168D160D178D176D
:100E1E0023000D128D1221008F0122008F0121005F
:100E2E009513F03024008D00080087310727873195
:100E3E0087310A278731F501750887317727873182
:100E4E0020008D1A2B2F2C2F382F0130F300750A0E
:100E5E00312FF335890B302F7308F40074082200FC
:100E6E008F0420000D1A3C2F3D2F4A2F0130F30026
:100E7E00750A422FF335890B412F7308FF3AF400A0
:100E8E00740822008F0520008D1B4E2F4F2F5F2FD1
:100E9E008D1F522F532F4F2FFF30F3007308F5077E
:100EAE007508803A813E03185D2F5E2F5F2FF50186
:100EBE000D1B622F632F232F0D1F662F672F632F9E
:100ECE000130F3007308F5077508803A783E031C6D
:100EDE00712F722F232F0730F500232F8031022818
:100EEE00F200D32F22000E108E100E118E110E1244
:100EFE008E120E17FB2F22000E148E100E118E1551
:100F0E000E168E160E17FB2F22000E108E100E15BB
:100F1E008E110E128E160E13FB2F22000E108E1037
:100F2E000E118E110E168E160E13FB2F22000E149E
:100F3E008E100E118E150E168E120E13FB2F220012
:100F4E000E108E140E118E110E168E120E13FB2F06
:100F5E0022000E108E140E118E110E128E120E1302
:100F6E00FB2F22000E108E100E118E150E168E12E5
:100F7E000E17FB2F22000E108E100E118E110E1258
:100F8E008E120E13FB2F22000E108E100E118E11CC
:100F9E000E168E120E13FB2F7208F000F10171085F
:100FAE00003A0319DB2FFB2F7008003A0319792F33
:100FBE00013A0319822F033A03198B2F013A0319B1
:100FCE00942F073A03199D2F013A0319A62F033ABE
:100FDE000319AF2F013A0319B82F0F3A0319C12F76
:100FEE00013A0319CA2FFB2F0800F50120008731A3
:020FFE001C2FA6
:020000040001F9
:04000E00E23FFF3E90
:00000001FF
