:08000000803102288731FC2F3A
:100E3E0021000D148D140D1523000D108D100D11A4
:100E4E00FF3021008E008F0120008E0122008F01C5
:100E5E000800F300F201731C352F362F3A2F70085D
:100E6E00F1007108F2070310F00D0310F30C730874
:100E7E00031D422F432F322F72080800F200F40197
:100E8E00700803194B2F4C2F6C2FF301F30A552FBB
:100E9E000310F00D0130F1007108F307F01F582F09
:100EAE00592F4F2F0310F40D70087202031C602F80
:100EBE00612F642F7008F20274140310F00C0130CD
:100ECE00F302031D6B2F6C2F592F74080800873106
:100EDE001F27873120000E080F39F7000E08F50086
:100EEE000430F536890B782F75080F39F6000D187A
:100EFE00812F822F902F8D18852F862F902F0D19D1
:100F0E00892F8A2F902F77087607F800780822000D
:100F1E008F0020000D1C942F952FB52F8D18982F14
:100F2E00992FB52F0D199C2F9D2FB52F770876026F
:100F3E000318A22FA32FA92F76087702F80078089E
:100F4E0022008F00760877020318AE2FAF2FB52F31
:100F5E0077087602F800780822008F0020000D181E
:100F6E00B92FBA2FCC2F8D1CBD2FBE2FCC2F0D1904
:100F7E00C12FC22FCC2F7608F0007708873130278B
:100F8E008731F800780822008F0020000D1CD02F2A
:100F9E00D12F712F8D18D42FD52F712F0D19D82F2A
:100FAE00D92F712F770876020318DE2FDF2FE92F46
:100FBE007608F0007708873145278731F8007808E2
:100FCE0022008F00760877020318EE2FEF2F712F75
:100FDE007708F0007608873145278731F8007808C2
:100FEE0022008F00712F80310228F80120008731F6
:020FFE006E2F54
:020000040001F9
:04000E00E23FFF3E90
:00000001FF
