:08000000803102288731EA2F4C
:100AF000FE0012001E00FE0B792D0034BF34863438
:100B0000DB34CF34E634ED34FD348734FF34E7345E
:100B100021008E018F010D1423000D1021008D1472
:100B200023008D1008003830210099009801220020
:100B300096018631DA2685319C2D80310228F60116
:100B4000F31FA32DA42DAB2DF209F309F20A03190B
:100B5000F30AF601F60AF11FAE2DAF2DB42DF00900
:100B6000F109F00A0319F10A700871040319B92D8B
:100B7000BA2DE32DF501F50AC62D0130F035F10D42
:100B8000890BBE2D0130F4007408F507F11FC92D43
:100B9000CA2DBD2D71087302031DD02D700872027D
:100BA000031CD32DD42DD82D7008F2027108F33B0D
:100BB0000130F136F00C890BD92D0130F502031DFF
:100BC000E22DE32DCA2D76080319E72DE82DED2D32
:100BD000F209F309F20A0319F30A7308F100720823
:100BE000F0000800F601F11FF62DF72DFE2DF0099B
:100BF000F109F00A0319F10AF601F60AF31F012EB2
:100C0000022E0B2EF209F309F20A0319F30A01303E
:100C1000F4007408F606F701F8017008710403196E
:100C2000122E132E422EF501F50A1F2E0130F0353B
:100C3000F10D890B172E0130F4007408F507F11F30
:100C4000222E232E162E0130F735F80D890B242E77
:100C500071087302031D2E2E70087202031C312EC0
:100C6000322E372E7008F2027108F33B77140130F0
:100C7000F136F00C890B382E0130F502031D412EA0
:100C8000422E232E76080319462E472E4C2EF709A6
:100C9000F809F70A0319F80A7808F1007708F00054
:100CA0000800B42E72088600730887002000200810
:100CB0008100D92E20002108F400720886007308F4
:100CC000870074088100D92E20002208F4007208E1
:100CD00086007308870074088100D92E200023083D
:100CE000F400720886007308870074088100D92E0A
:100CF00020002408F4007208860073088700740836
:100D00008100D92E20002508F4007208860073089F
:100D1000870074088100D92E20002608F40072088C
:100D200086007308870074088100D92E20002708E8
:100D3000F400720886007308870074088100D92EB9
:100D400020002808F40072088600730887007408E1
:100D50008100D92E20002908F4007208860073084B
:100D6000870074088100D92E7108003A0319B92E42
:100D7000D92E7008003A0319522E013A03195A2E3F
:100D8000033A0319642E013A03196E2E073A031928
:100D9000782E013A0319822E033A03198C2E013A58
:100DA0000319962E0F3A0319A02E013A0319AA2E01
:100DB000D92E08008531882586310030F000F100F9
:100DC0000E30F2000130F3008631512686310030BA
:100DD000F000F1000F30F2000130F30086315126AF
:100DE000863163307B067C04031DF72EF82E052F19
:100DF000FB01FC010830FA009D30F9000630890B38
:100E0000FF2EF90BFF2EFA0BFF2E7B087C04031D2F
:100E10000A2F0B2F1A2F6330FB000030FC00083024
:100E2000FA009D30F9000630890B142FF90B142FAE
:100E3000FA0B142F20000D1C1E2F1F2F6E2F8D1844
:100E4000222F232F6E2FFD01FD0A7B08013EFB00A0
:100E500000307C3DFC000A30F0000030F1007C08DE
:100E6000F3007B08F2008531F225863171082000FD
:100E7000AD007008AC000A30F0000030F1007C08D2
:100E8000F3007B08F20085319F2586317108200030
:100E9000AB007008AA002D08F1002C08F0000E30FD
:100EA000F2000130F30086315126863120002B08F4
:100EB000F1002A08F0000F30F2000130F300863113
:100EC000512686310630FA001330F900AE30890B16
:100ED000672FF90B672FFA0B672FF12E0D18712F63
:100EE000722F7E2F8D1C752F762F7E2FFD017B0894
:100EF000FF3EFB00FF307C3DFC002B2F0D1C812FA3
:100F0000822F872F8D1C852F862F872FF12E0D186E
:100F10008A2F8B2FE82F8D188E2F8F2FE82F7D0390
:100F2000031D932F942FDC2F7B08023EFB00003023
:100F30007C3DFC000A30F0000030F1007C08F3003A
:100F40007B08F2008531F225863171082000AD0062
:100F50007008AC000A30F0000030F1007C08F300AB
:100F60007B08F20085319F25863171082000AB0097
:100F70007008AA002D08F1002C08F0000E30F200D5
:100F80000130F30086315126863120002B08F10014
:100F90002A08F0000F30F2000130F30086315126AC
:100FA00086310630FA001330F900AE30890BD62FA7
:100FB000F90BD62FFA0BD62F7D08031DE02FE12F5A
:100FC000E82F7B08FE3EFB00FF307C3DFC002B2F12
:100FD000F12E08007E3084008530850020308600A8
:100FE000003087000A30853178258731FB01FC010C
:100FF000FD01AA01AB01AC01AD0120008531932DAB
:020000040001F9
:04000E00E239FF1EB6
:00000001FF
