:08000000803102288731EA2F4C
:10054200FE0012001E00FE0BA22A00344034793451
:1005520024343034193412340234783400341834E8
:10056200BF348634DB34CF34E634ED34FD348734A3
:10057200FF34E734F300F201731CC02AC12AC52AF2
:100582007008F1007108F2070310F00D0310F30C6C
:100592007308031DCD2ACE2ABD2A72080800210045
:1005A2000C148C140C15FF308E008F0120008E016C
:1005B20022008F0121008D0123008D018C01210079
:1005C2008C110C128C120800F200F401700803194D
:1005D200EB2AEC2A0C2BF301F30AF52A0310F00D97
:1005E2000130F1007108F307F01FF82AF92AEF2A07
:1005F2000310F40D70087202031C002B012B042B54
:100602007008F20274140310F00C0130F302031D9F
:100612000B2B0C2BF92A74080800F601F31F122B7E
:10062200132B1A2BF209F309F20A0319F30AF60142
:10063200F60AF11F1D2B1E2B232BF009F109F00ADC
:100642000319F10A700871040319282B292B522B64
:10065200F501F50A352B0130F035F10D890B2D2B03
:100662000130F4007408F507F11F382B392B2C2BBD
:1006720071087302031D3F2B70087202031C422B88
:10068200432B472B7008F2027108F33B0130F1361D
:10069200F00C890B482B0130F502031D512B522B14
:1006A200392B76080319562B572B5C2BF209F309C9
:1006B200F20A0319F30A7308F1007208F000080045
:1006C2002000BC01F81F662B672B6E2BF709F80977
:1006D200F70A0319F80ABC01BC0AFA1F712B722B24
:1006E2007B2BF909FA09F90A0319FA0A0130FB000E
:1006F2007B08BC06BD01BE01770878040319822B72
:10070200832BB22BBB01BB0A8F2B0130F735F80DBF
:10071200890B872B0130FB007B08BB07F81F922B4C
:10072200932B862B0130BD35BE0D890B942B780897
:100732007A02031D9E2B77087902031CA12BA22BA0
:10074200A72B7708F9027808FA3B3D140130F836F6
:10075200F70C890BA82B0130BB02031DB12BB22B66
:10076200932B3C080319B62BB72BBC2BBD09BE0932
:10077200BD0A0319BE0A3E08F8003D08F70008004A
:100782008231D022833120000E080F39C2000E08B8
:10079200FC000430FC36890BCB2B7C080F39C100DE
:1007A2000C18D42BD52B7C2C8C18D82BD92B7C2C29
:1007B2000C19DC2BDD2B7C2C42084107BA0064307B
:1007C200F7000030F8003A08FC00FD017C08F9004F
:1007D2007D08FA0083316123833178082000B50057
:1007E2007708B4000A30F7000030F8003A08FC003D
:1007F200FD017C08F2007D08F3006430F000003057
:10080200F10083310E2383317108FA007008F90078
:1008120083316123833178082000B7007708B6005E
:100822003A08FC00FD017C08F2007D08F300643008
:10083200F0000030F10083310E2383317108200073
:10084200C0007008BF000A30F0000030F10040081C
:10085200F3003F08F20083310E2383317108200038
:10086200B9007008B80022008C150C168C160F10F7
:10087200200038082A3E86008701010822008D00E8
:100882000630FD001330FC00AE30890B462CFC0B09
:10089200462CFD0B462C22008C150C168C120F14C4
:1008A200200036082A3E86008701010822008D00BA
:1008B2000630FD001330FC00AE30890B5E2CFC0BC1
:1008C2005E2CFD0B5E2C22008C150C128C160F1464
:1008D200200034082A3E86008701010822008D008C
:1008E2000630FD001330FC00AE30890B762CFC0B79
:1008F200762CFD0B762C20000C1C802C812CD42D08
:100902008C18842C852CD42D0C19882C892CD42D50
:1009120041084202031C8E2C8F2C2E2D41084202CC
:10092200BA006430F7000030F8003A08FC00FD011C
:100932007C08F9007D08FA0083316123833178084D
:100942002000B5007708B4000A30F7000030F80044
:100952003A08FC00FD017C08F2007D08F3006430D7
:10096200F0000030F10083310E2383317108FA0068
:100972007008F90083316123833178082000B700C1
:100982007708B6003A08FC00FD017C08F2007D08F9
:10099200F3006430F0000030F10083310E23833124
:1009A20071082000C0007008BF000A30F00000305B
:1009B200F1004008F3003F08F20083310E23833137
:1009C20071082000B9007008B80022008C150C16BE
:1009D2008C160F10200038082A3E86008701010875
:1009E20022008D000630FD001330FC00AE30890B72
:1009F200F82CFC0BF82CFD0BF82C22008C150C1695
:100A02008C120F14200036082A3E86008701010846
:100A120022008D000630FD001330FC00AE30890B41
:100A2200102DFC0B102DFD0B102D22008C150C121D
:100A32008C160F14200034082A3E86008701010814
:100A420022008D000630FD001330FC00AE30890B11
:100A5200282DFC0B282DFD0B282D200042084102D9
:100A6200031C342D352DD42D42084102BA006430C6
:100A7200F7000030F8003A08FC00FD017C08F9009C
:100A82007D08FA0083316123833178082000B500A4
:100A92007708B4000A30F7000030F8003A08FC008A
:100AA200FD017C08F2007D08F3006430F0000030A4
:100AB200F10083310E2383317108FA007008F900C6
:100AC20083316123833178082000B7007708B600AC
:100AD2003A08FC00FD017C08F2007D08F300643056
:100AE200F0000030F10083310E23833171082000C1
:100AF200C0007008BF000A30F0000030F10040086A
:100B0200F3003F08F20083310E2383317108200085
:100B1200B9007008B80022008C150C168C160F1044
:100B2200200038082A3E86008701010822008D0035
:100B32000630FD001330FC00AE30890B9E2DFC0BFD
:100B42009E2DFD0B9E2D22008C150C168C120F145F
:100B5200200036082A3E86008701010822008D0007
:100B62000630FD001330FC00AE30890BB62DFC0BB5
:100B7200B62DFD0BB62D22008C150C128C160F14FF
:100B8200200034082A3E86008701010822008D00D9
:100B92000630FD001330FC00AE30890BCE2DFC0B6D
:100BA200CE2DFD0BCE2D20000C18D82DD92D852E43
:100BB2008C1CDC2DDD2D852E0C19E02DE12D852ED2
:100BC2004108F00042088231BB2283312000BA0082
:100BD2006430F7000030F8003A08FC00FD017C08A0
:100BE200F9007D08FA0083316123833178082000FF
:100BF200B5007708B4003A08FC00FD017C08F20059
:100C02007D08F3006430F0000030F10083310E23E0
:100C1200833171082000C0007008BF000A30F00064
:100C22000030F1004008F3003F08F20083310E2348
:100C3200833171082000B9007008B8000A30F7004B
:100C42000030F8003A08FC00FD017C08F2007D0843
:100C5200F3006430F0000030F10083310E23833161
:100C62007108FA007008F900833161238331780832
:100C72002000B7007708B60022008C150C168C16DF
:100C82000F10200038082A3E860087010108220042
:100C92008D000630FD001330FC00AE30890B4F2E64
:100CA200FC0B4F2EFD0B4F2E22008C150C168C12B6
:100CB2000F14200036082A3E860087010108220010
:100CC2008D000630FD001330FC00AE30890B672E1C
:100CD200FC0B672EFD0B672E22008C150C128C1656
:100CE2000F14200034082A3E8600870101082200E2
:100CF2008D000630FD001330FC00AE30890B7F2ED4
:100D0200FC0B7F2EFD0B7F2E20000C1C892E8A2EC1
:100D1200C42B8C1C8D2E8E2EC42B0C19912E922E30
:100D2200C42B41084202031C972E982E3C2F4108E7
:100D3200F00042088231E52283312000BA0064309B
:100D4200F7000030F8003A08FC00FD017C08F900C9
:100D52007D08FA0083316123833178082000B500D1
:100D62007708B4003A08FC00FD017C08F2007D0817
:100D7200F3006430F0000030F10083310E23833140
:100D820071082000C0007008BF000A30F000003077
:100D9200F1004008F3003F08F20083310E23833153
:100DA20071082000B9007008B8000A30F70000305E
:100DB200F8003A08FC00FD017C08F2007D08F3000F
:100DC2006430F0000030F10083310E23833171086A
:100DD200FA007008F900833161238331780820001A
:100DE200B7007708B60022008C150C168C160F106F
:100DF200200038082A3E86008701010822008D0063
:100E02000630FD001330FC00AE30890B062FFC0BC0
:100E1200062FFD0B062F22008C150C168C120F14B8
:100E2200200036082A3E86008701010822008D0034
:100E32000630FD001330FC00AE30890B1E2FFC0B78
:100E42001E2FFD0B1E2F22008C150C128C160F1458
:100E5200200034082A3E86008701010822008D0006
:100E62000630FD001330FC00AE30890B362FFC0B30
:100E7200362FFD0B362F200042084102031C422F61
:100E8200432FC42B4208F00041088231E52283310E
:100E92002000BA006430F7000030F8003A08FC0085
:100EA200FD017C08F9007D08FA008331612383315A
:100EB20078082000B5007708B4003A08FC00FD016C
:100EC2007C08F2007D08F3006430F0000030F1008D
:100ED20083310E23833171082000C0007008BF00E7
:100EE2000A30F0000030F1004008F3003F08F20041
:100EF20083310E23833171082000B9007008B800D5
:100F02000A30F7000030F8003A08FC00FD017C08C6
:100F1200F2007D08F3006430F0000030F10083310C
:100F22000E2383317108FA007008F90083316123BE
:100F3200833178082000B7007708B60022008C15AC
:100F42000C168C160F10200038082A3E86008701E6
:100F5200010822008D000630FD001330FC00AE3087
:100F6200890BB12FFC0BB12FFD0BB12F22008C1579
:100F72000C168C120F14200036082A3E86008701B8
:100F8200010822008D000630FD001330FC00AE3057
:100F9200890BC92FFC0BC92FFD0BC92F22008C1501
:100FA2000C128C160F14200034082A3E860087018A
:100FB200010822008D000630FD001330FC00AE3027
:100FC200890BE12FFC0BE12FFD0BE12FC42B8031AC
:100FD2000228A7308400823085002030860000304D
:100FE200870014308231A1228731B401B501B601E4
:100FF200B701B801B901BA0120008331C12BC8344D
:021002000034B8
:020000040001F9
:04000E00E23FFF3E90
:00000001FF
