:08000000803102288731FC2F3A
:100F180021000E118E120F118E100E128F100E104E
:100F28008E110F1022000E108E110F108E100E123F
:100F38008F100E118E120F11080087318C27873100
:100F480022008F100E100E158E150F144D30F10063
:100F58001930F0005030890BAF2FF00BAF2FF10B89
:100F6800AF2F22008E140E160E118E114D30F10087
:100F78001930F0005030890BBF2FF00BBF2FF10B49
:100F8800BF2F22008E100E120E148E164D30F10057
:100F98001930F0005030890BCF2FF00BCF2FF10B09
:100FA800CF2F22000F108E120E168F144D30F10025
:100FB8001930F0005030890BDF2FF00BDF2FF10BC9
:100FC800DF2F22000E128F100F158E151A30F10028
:100FD8005E30F0006E30890BEF2FF00BEF2FF10B26
:100FE800EF2F003222000F118F14A42F8031022816
:080FF800F20120008731A12F56
:020000040001F9
:04000E00E239FF1EB6
:00000001FF
